{
  "contractName": "Voting",
  "abi": [
    {
      "anonymous": false,
      "inputs": [
        {
          "indexed": true,
          "internalType": "address",
          "name": "previousOwner",
          "type": "address"
        },
        {
          "indexed": true,
          "internalType": "address",
          "name": "newOwner",
          "type": "address"
        }
      ],
      "name": "OwnershipTransferred",
      "type": "event"
    },
    {
      "anonymous": false,
      "inputs": [
        {
          "indexed": false,
          "internalType": "uint256",
          "name": "proposalId",
          "type": "uint256"
        }
      ],
      "name": "ProposalRegistered",
      "type": "event"
    },
    {
      "anonymous": false,
      "inputs": [
        {
          "indexed": false,
          "internalType": "address",
          "name": "voter",
          "type": "address"
        },
        {
          "indexed": false,
          "internalType": "uint256",
          "name": "proposalId",
          "type": "uint256"
        }
      ],
      "name": "Voted",
      "type": "event"
    },
    {
      "anonymous": false,
      "inputs": [
        {
          "indexed": false,
          "internalType": "address",
          "name": "voterAddress",
          "type": "address"
        }
      ],
      "name": "VoterRegistered",
      "type": "event"
    },
    {
      "anonymous": false,
      "inputs": [
        {
          "indexed": false,
          "internalType": "enum Voting.WorkflowStatus",
          "name": "previousStatus",
          "type": "uint8"
        },
        {
          "indexed": false,
          "internalType": "enum Voting.WorkflowStatus",
          "name": "newStatus",
          "type": "uint8"
        }
      ],
      "name": "WorkflowStatusChange",
      "type": "event"
    },
    {
      "inputs": [],
      "name": "owner",
      "outputs": [
        {
          "internalType": "address",
          "name": "",
          "type": "address"
        }
      ],
      "stateMutability": "view",
      "type": "function",
      "constant": true
    },
    {
      "inputs": [],
      "name": "renounceOwnership",
      "outputs": [],
      "stateMutability": "nonpayable",
      "type": "function"
    },
    {
      "inputs": [
        {
          "internalType": "address",
          "name": "newOwner",
          "type": "address"
        }
      ],
      "name": "transferOwnership",
      "outputs": [],
      "stateMutability": "nonpayable",
      "type": "function"
    },
    {
      "inputs": [],
      "name": "winningProposalId",
      "outputs": [
        {
          "internalType": "uint256",
          "name": "",
          "type": "uint256"
        }
      ],
      "stateMutability": "view",
      "type": "function",
      "constant": true
    },
    {
      "inputs": [],
      "name": "workflowStatus",
      "outputs": [
        {
          "internalType": "enum Voting.WorkflowStatus",
          "name": "",
          "type": "uint8"
        }
      ],
      "stateMutability": "view",
      "type": "function",
      "constant": true
    },
    {
      "inputs": [
        {
          "internalType": "address",
          "name": "_addr",
          "type": "address"
        }
      ],
      "name": "getVoter",
      "outputs": [
        {
          "components": [
            {
              "internalType": "bool",
              "name": "isRegistered",
              "type": "bool"
            },
            {
              "internalType": "bool",
              "name": "hasVoted",
              "type": "bool"
            },
            {
              "internalType": "uint256",
              "name": "votedProposalId",
              "type": "uint256"
            }
          ],
          "internalType": "struct Voting.Voter",
          "name": "",
          "type": "tuple"
        }
      ],
      "stateMutability": "view",
      "type": "function",
      "constant": true
    },
    {
      "inputs": [
        {
          "internalType": "uint256",
          "name": "_id",
          "type": "uint256"
        }
      ],
      "name": "getOneProposal",
      "outputs": [
        {
          "components": [
            {
              "internalType": "string",
              "name": "description",
              "type": "string"
            },
            {
              "internalType": "uint256",
              "name": "voteCount",
              "type": "uint256"
            }
          ],
          "internalType": "struct Voting.Proposal",
          "name": "",
          "type": "tuple"
        }
      ],
      "stateMutability": "view",
      "type": "function",
      "constant": true
    },
    {
      "inputs": [
        {
          "internalType": "address",
          "name": "_addr",
          "type": "address"
        }
      ],
      "name": "addVoter",
      "outputs": [],
      "stateMutability": "nonpayable",
      "type": "function"
    },
    {
      "inputs": [
        {
          "internalType": "string",
          "name": "_desc",
          "type": "string"
        }
      ],
      "name": "addProposal",
      "outputs": [],
      "stateMutability": "nonpayable",
      "type": "function"
    },
    {
      "inputs": [
        {
          "internalType": "uint256",
          "name": "_id",
          "type": "uint256"
        }
      ],
      "name": "setVote",
      "outputs": [],
      "stateMutability": "nonpayable",
      "type": "function"
    },
    {
      "inputs": [],
      "name": "startProposalsRegistering",
      "outputs": [],
      "stateMutability": "nonpayable",
      "type": "function"
    },
    {
      "inputs": [],
      "name": "endProposalsRegistering",
      "outputs": [],
      "stateMutability": "nonpayable",
      "type": "function"
    },
    {
      "inputs": [],
      "name": "startVotingSession",
      "outputs": [],
      "stateMutability": "nonpayable",
      "type": "function"
    },
    {
      "inputs": [],
      "name": "endVotingSession",
      "outputs": [],
      "stateMutability": "nonpayable",
      "type": "function"
    },
    {
      "inputs": [],
      "name": "tallyVotes",
      "outputs": [],
      "stateMutability": "nonpayable",
      "type": "function"
    }
  ],
  "bytecode": "0x608060405234801561001057600080fd5b5061002d61002261003260201b60201c565b61003a60201b60201c565b6100fe565b600033905090565b60008060009054906101000a900473ffffffffffffffffffffffffffffffffffffffff169050816000806101000a81548173ffffffffffffffffffffffffffffffffffffffff021916908373ffffffffffffffffffffffffffffffffffffffff1602179055508173ffffffffffffffffffffffffffffffffffffffff168173ffffffffffffffffffffffffffffffffffffffff167f8be0079c531659141344cd1fd0a4f28419497f9722a3daafe3b4186f6b6457e060405160405180910390a35050565b61232b806200010e6000396000f3fe608060405234801561001057600080fd5b50600436106100f55760003560e01c8063a7bfab1611610097578063d4f50f9811610066578063d4f50f98146101ee578063ee74c6781461021e578063f2fde38b14610228578063f4ab9adf14610244576100f5565b8063a7bfab16146101b2578063c64963c5146101bc578063c7038a4e146101da578063c88af42f146101e4576100f5565b8063715018a6116100d3578063715018a61461013c5780638da5cb5b14610146578063a1edffa214610164578063a2788cce14610182576100f5565b8063230796ae146100fa5780632fdae3c514610116578063378a217814610132575b600080fd5b610114600480360381019061010f9190611472565b610260565b005b610130600480360381019061012b91906115e5565b61055b565b005b61013a6107e7565b005b610144610954565b005b61014e610968565b60405161015b919061166f565b60405180910390f35b61016c610991565b6040516101799190611701565b60405180910390f35b61019c60048036038101906101979190611472565b6109a4565b6040516101a991906117f0565b60405180910390f35b6101ba610b0b565b005b6101c4610bf1565b6040516101d19190611821565b60405180910390f35b6101e2610bf7565b005b6101ec610cdd565b005b61020860048036038101906102039190611868565b610dc2565b60405161021591906118f2565b60405180910390f35b610226610eea565b005b610242600480360381019061023d9190611868565b610fd0565b005b61025e60048036038101906102599190611868565b611053565b005b600460003373ffffffffffffffffffffffffffffffffffffffff1673ffffffffffffffffffffffffffffffffffffffff16815260200190815260200160002060000160009054906101000a900460ff166102ef576040517f08c379a00000000000000000000000000000000000000000000000000000000081526004016102e69061196a565b60405180910390fd5b600360058111156103035761030261168a565b5b600260009054906101000a900460ff1660058111156103255761032461168a565b5b14610365576040517f08c379a000000000000000000000000000000000000000000000000000000000815260040161035c906119fc565b60405180910390fd5b60011515600460003373ffffffffffffffffffffffffffffffffffffffff1673ffffffffffffffffffffffffffffffffffffffff16815260200190815260200160002060000160019054906101000a900460ff161515036103fb576040517f08c379a00000000000000000000000000000000000000000000000000000000081526004016103f290611a68565b60405180910390fd5b6003805490508110610442576040517f08c379a000000000000000000000000000000000000000000000000000000000815260040161043990611ad4565b60405180910390fd5b80600460003373ffffffffffffffffffffffffffffffffffffffff1673ffffffffffffffffffffffffffffffffffffffff168152602001908152602001600020600101819055506001600460003373ffffffffffffffffffffffffffffffffffffffff1673ffffffffffffffffffffffffffffffffffffffff16815260200190815260200160002060000160016101000a81548160ff021916908315150217905550600381815481106104f8576104f7611af4565b5b9060005260206000209060020201600101600081548092919061051a90611b52565b91905055507f4d99b957a2bc29a30ebd96a7be8e68fe50a3c701db28a91436490b7d53870ca43382604051610550929190611b9a565b60405180910390a150565b600460003373ffffffffffffffffffffffffffffffffffffffff1673ffffffffffffffffffffffffffffffffffffffff16815260200190815260200160002060000160009054906101000a900460ff166105ea576040517f08c379a00000000000000000000000000000000000000000000000000000000081526004016105e19061196a565b60405180910390fd5b600160058111156105fe576105fd61168a565b5b600260009054906101000a900460ff1660058111156106205761061f61168a565b5b14610660576040517f08c379a000000000000000000000000000000000000000000000000000000000815260040161065790611c0f565b60405180910390fd5b606460038054905011156106a9576040517f08c379a00000000000000000000000000000000000000000000000000000000081526004016106a090611ca1565b60405180910390fd5b6040516020016106b890611ce7565b60405160208183030381529060405280519060200120816040516020016106df9190611d40565b6040516020818303038152906040528051906020012003610735576040517f08c379a000000000000000000000000000000000000000000000000000000000815260040161072c90611dd4565b60405180910390fd5b61073d611346565b8181600001819052506003819080600181540180825580915050600190039060005260206000209060020201600090919091909150600082015181600001908051906020019061078e929190611360565b506020820151816001015550507f92e393e9b54e2f801d3ea4beb0c5e71a21cc34a5d34b77d0fb8a3aa1650dc18f60016003805490506107ce9190611df4565b6040516107db9190611821565b60405180910390a15050565b6107ef6111fc565b600460058111156108035761080261168a565b5b600260009054906101000a900460ff1660058111156108255761082461168a565b5b14610865576040517f08c379a000000000000000000000000000000000000000000000000000000000815260040161085c90611e9a565b60405180910390fd5b600080600090505b6003805490508110156108e3576003828154811061088e5761088d611af4565b5b906000526020600020906002020160010154600382815481106108b4576108b3611af4565b5b90600052602060002090600202016001015411156108d0578091505b80806108db90611b52565b91505061086d565b50806001819055506005600260006101000a81548160ff021916908360058111156109115761091061168a565b5b02179055507f0a97a4ee45751e2abf3e4fc8946939630b11b371ea8ae39ccdc3056e98f5cc3f60046005604051610949929190611eba565b60405180910390a150565b61095c6111fc565b610966600061127a565b565b60008060009054906101000a900473ffffffffffffffffffffffffffffffffffffffff16905090565b600260009054906101000a900460ff1681565b6109ac611346565b600460003373ffffffffffffffffffffffffffffffffffffffff1673ffffffffffffffffffffffffffffffffffffffff16815260200190815260200160002060000160009054906101000a900460ff16610a3b576040517f08c379a0000000000000000000000000000000000000000000000000000000008152600401610a329061196a565b60405180910390fd5b60038281548110610a4f57610a4e611af4565b5b9060005260206000209060020201604051806040016040529081600082018054610a7890611f12565b80601f0160208091040260200160405190810160405280929190818152602001828054610aa490611f12565b8015610af15780601f10610ac657610100808354040283529160200191610af1565b820191906000526020600020905b815481529060010190602001808311610ad457829003601f168201915b505050505081526020016001820154815250509050919050565b610b136111fc565b60036005811115610b2757610b2661168a565b5b600260009054906101000a900460ff166005811115610b4957610b4861168a565b5b14610b89576040517f08c379a0000000000000000000000000000000000000000000000000000000008152600401610b80906119fc565b60405180910390fd5b6004600260006101000a81548160ff02191690836005811115610baf57610bae61168a565b5b02179055507f0a97a4ee45751e2abf3e4fc8946939630b11b371ea8ae39ccdc3056e98f5cc3f60036004604051610be7929190611eba565b60405180910390a1565b60015481565b610bff6111fc565b60006005811115610c1357610c1261168a565b5b600260009054906101000a900460ff166005811115610c3557610c3461168a565b5b14610c75576040517f08c379a0000000000000000000000000000000000000000000000000000000008152600401610c6c90611fb5565b60405180910390fd5b6001600260006101000a81548160ff02191690836005811115610c9b57610c9a61168a565b5b02179055507f0a97a4ee45751e2abf3e4fc8946939630b11b371ea8ae39ccdc3056e98f5cc3f60006001604051610cd3929190611eba565b60405180910390a1565b610ce56111fc565b60016005811115610cf957610cf861168a565b5b600260009054906101000a900460ff166005811115610d1b57610d1a61168a565b5b14610d5b576040517f08c379a0000000000000000000000000000000000000000000000000000000008152600401610d5290612047565b60405180910390fd5b60028060006101000a81548160ff02191690836005811115610d8057610d7f61168a565b5b02179055507f0a97a4ee45751e2abf3e4fc8946939630b11b371ea8ae39ccdc3056e98f5cc3f60016002604051610db8929190611eba565b60405180910390a1565b610dca6113e6565b600460003373ffffffffffffffffffffffffffffffffffffffff1673ffffffffffffffffffffffffffffffffffffffff16815260200190815260200160002060000160009054906101000a900460ff16610e59576040517f08c379a0000000000000000000000000000000000000000000000000000000008152600401610e509061196a565b60405180910390fd5b600460008373ffffffffffffffffffffffffffffffffffffffff1673ffffffffffffffffffffffffffffffffffffffff1681526020019081526020016000206040518060600160405290816000820160009054906101000a900460ff161515151581526020016000820160019054906101000a900460ff161515151581526020016001820154815250509050919050565b610ef26111fc565b60026005811115610f0657610f0561168a565b5b600260009054906101000a900460ff166005811115610f2857610f2761168a565b5b14610f68576040517f08c379a0000000000000000000000000000000000000000000000000000000008152600401610f5f906120d9565b60405180910390fd5b6003600260006101000a81548160ff02191690836005811115610f8e57610f8d61168a565b5b02179055507f0a97a4ee45751e2abf3e4fc8946939630b11b371ea8ae39ccdc3056e98f5cc3f60026003604051610fc6929190611eba565b60405180910390a1565b610fd86111fc565b600073ffffffffffffffffffffffffffffffffffffffff168173ffffffffffffffffffffffffffffffffffffffff1603611047576040517f08c379a000000000000000000000000000000000000000000000000000000000815260040161103e9061216b565b60405180910390fd5b6110508161127a565b50565b61105b6111fc565b6000600581111561106f5761106e61168a565b5b600260009054906101000a900460ff1660058111156110915761109061168a565b5b146110d1576040517f08c379a00000000000000000000000000000000000000000000000000000000081526004016110c8906121fd565b60405180910390fd5b60011515600460008373ffffffffffffffffffffffffffffffffffffffff1673ffffffffffffffffffffffffffffffffffffffff16815260200190815260200160002060000160009054906101000a900460ff16151503611167576040517f08c379a000000000000000000000000000000000000000000000000000000000815260040161115e90612269565b60405180910390fd5b6001600460008373ffffffffffffffffffffffffffffffffffffffff1673ffffffffffffffffffffffffffffffffffffffff16815260200190815260200160002060000160006101000a81548160ff0219169083151502179055507fb6be2187d059cc2a55fe29e0e503b566e1e0f8c8780096e185429350acffd3dd816040516111f1919061166f565b60405180910390a150565b61120461133e565b73ffffffffffffffffffffffffffffffffffffffff16611222610968565b73ffffffffffffffffffffffffffffffffffffffff1614611278576040517f08c379a000000000000000000000000000000000000000000000000000000000815260040161126f906122d5565b60405180910390fd5b565b60008060009054906101000a900473ffffffffffffffffffffffffffffffffffffffff169050816000806101000a81548173ffffffffffffffffffffffffffffffffffffffff021916908373ffffffffffffffffffffffffffffffffffffffff1602179055508173ffffffffffffffffffffffffffffffffffffffff168173ffffffffffffffffffffffffffffffffffffffff167f8be0079c531659141344cd1fd0a4f28419497f9722a3daafe3b4186f6b6457e060405160405180910390a35050565b600033905090565b604051806040016040528060608152602001600081525090565b82805461136c90611f12565b90600052602060002090601f01602090048101928261138e57600085556113d5565b82601f106113a757805160ff19168380011785556113d5565b828001600101855582156113d5579182015b828111156113d45782518255916020019190600101906113b9565b5b5090506113e2919061140b565b5090565b6040518060600160405280600015158152602001600015158152602001600081525090565b5b8082111561142457600081600090555060010161140c565b5090565b6000604051905090565b600080fd5b600080fd5b6000819050919050565b61144f8161143c565b811461145a57600080fd5b50565b60008135905061146c81611446565b92915050565b60006020828403121561148857611487611432565b5b60006114968482850161145d565b91505092915050565b600080fd5b600080fd5b6000601f19601f8301169050919050565b7f4e487b7100000000000000000000000000000000000000000000000000000000600052604160045260246000fd5b6114f2826114a9565b810181811067ffffffffffffffff82111715611511576115106114ba565b5b80604052505050565b6000611524611428565b905061153082826114e9565b919050565b600067ffffffffffffffff8211156115505761154f6114ba565b5b611559826114a9565b9050602081019050919050565b82818337600083830152505050565b600061158861158384611535565b61151a565b9050828152602081018484840111156115a4576115a36114a4565b5b6115af848285611566565b509392505050565b600082601f8301126115cc576115cb61149f565b5b81356115dc848260208601611575565b91505092915050565b6000602082840312156115fb576115fa611432565b5b600082013567ffffffffffffffff81111561161957611618611437565b5b611625848285016115b7565b91505092915050565b600073ffffffffffffffffffffffffffffffffffffffff82169050919050565b60006116598261162e565b9050919050565b6116698161164e565b82525050565b60006020820190506116846000830184611660565b92915050565b7f4e487b7100000000000000000000000000000000000000000000000000000000600052602160045260246000fd5b600681106116ca576116c961168a565b5b50565b60008190506116db826116b9565b919050565b60006116eb826116cd565b9050919050565b6116fb816116e0565b82525050565b600060208201905061171660008301846116f2565b92915050565b600081519050919050565b600082825260208201905092915050565b60005b8381101561175657808201518184015260208101905061173b565b83811115611765576000848401525b50505050565b60006117768261171c565b6117808185611727565b9350611790818560208601611738565b611799816114a9565b840191505092915050565b6117ad8161143c565b82525050565b600060408301600083015184820360008601526117d0828261176b565b91505060208301516117e560208601826117a4565b508091505092915050565b6000602082019050818103600083015261180a81846117b3565b905092915050565b61181b8161143c565b82525050565b60006020820190506118366000830184611812565b92915050565b6118458161164e565b811461185057600080fd5b50565b6000813590506118628161183c565b92915050565b60006020828403121561187e5761187d611432565b5b600061188c84828501611853565b91505092915050565b60008115159050919050565b6118aa81611895565b82525050565b6060820160008201516118c660008501826118a1565b5060208201516118d960208501826118a1565b5060408201516118ec60408501826117a4565b50505050565b600060608201905061190760008301846118b0565b92915050565b600082825260208201905092915050565b7f596f75277265206e6f74206120766f7465720000000000000000000000000000600082015250565b600061195460128361190d565b915061195f8261191e565b602082019050919050565b6000602082019050818103600083015261198381611947565b9050919050565b7f566f74696e672073657373696f6e20686176656e74207374617274656420796560008201527f7400000000000000000000000000000000000000000000000000000000000000602082015250565b60006119e660218361190d565b91506119f18261198a565b604082019050919050565b60006020820190508181036000830152611a15816119d9565b9050919050565b7f596f75206861766520616c726561647920766f74656400000000000000000000600082015250565b6000611a5260168361190d565b9150611a5d82611a1c565b602082019050919050565b60006020820190508181036000830152611a8181611a45565b9050919050565b7f50726f706f73616c206e6f7420666f756e640000000000000000000000000000600082015250565b6000611abe60128361190d565b9150611ac982611a88565b602082019050919050565b60006020820190508181036000830152611aed81611ab1565b9050919050565b7f4e487b7100000000000000000000000000000000000000000000000000000000600052603260045260246000fd5b7f4e487b7100000000000000000000000000000000000000000000000000000000600052601160045260246000fd5b6000611b5d8261143c565b91507fffffffffffffffffffffffffffffffffffffffffffffffffffffffffffffffff8203611b8f57611b8e611b23565b5b600182019050919050565b6000604082019050611baf6000830185611660565b611bbc6020830184611812565b9392505050565b7f50726f706f73616c7320617265206e6f7420616c6c6f77656420796574000000600082015250565b6000611bf9601d8361190d565b9150611c0482611bc3565b602082019050919050565b60006020820190508181036000830152611c2881611bec565b9050919050565b7f3130302070726f706f73616c732068617320616c7265616479206265656e207260008201527f6567697374726564000000000000000000000000000000000000000000000000602082015250565b6000611c8b60288361190d565b9150611c9682611c2f565b604082019050919050565b60006020820190508181036000830152611cba81611c7e565b9050919050565b50565b6000611cd160008361190d565b9150611cdc82611cc1565b600082019050919050565b60006020820190508181036000830152611d0081611cc4565b9050919050565b6000611d128261171c565b611d1c818561190d565b9350611d2c818560208601611738565b611d35816114a9565b840191505092915050565b60006020820190508181036000830152611d5a8184611d07565b905092915050565b7f566f7573206e6520706f7576657a20706173206e65207269656e2070726f706f60008201527f7365720000000000000000000000000000000000000000000000000000000000602082015250565b6000611dbe60238361190d565b9150611dc982611d62565b604082019050919050565b60006020820190508181036000830152611ded81611db1565b9050919050565b6000611dff8261143c565b9150611e0a8361143c565b925082821015611e1d57611e1c611b23565b5b828203905092915050565b7f43757272656e7420737461747573206973206e6f7420766f74696e672073657360008201527f73696f6e20656e64656400000000000000000000000000000000000000000000602082015250565b6000611e84602a8361190d565b9150611e8f82611e28565b604082019050919050565b60006020820190508181036000830152611eb381611e77565b9050919050565b6000604082019050611ecf60008301856116f2565b611edc60208301846116f2565b9392505050565b7f4e487b7100000000000000000000000000000000000000000000000000000000600052602260045260246000fd5b60006002820490506001821680611f2a57607f821691505b602082108103611f3d57611f3c611ee3565b5b50919050565b7f5265676973746572696e672070726f706f73616c732063616e7420626520737460008201527f6172746564206e6f770000000000000000000000000000000000000000000000602082015250565b6000611f9f60298361190d565b9150611faa82611f43565b604082019050919050565b60006020820190508181036000830152611fce81611f92565b9050919050565b7f5265676973746572696e672070726f706f73616c7320686176656e742073746160008201527f7274656420796574000000000000000000000000000000000000000000000000602082015250565b600061203160288361190d565b915061203c82611fd5565b604082019050919050565b6000602082019050818103600083015261206081612024565b9050919050565b7f5265676973746572696e672070726f706f73616c73207068617365206973206e60008201527f6f742066696e6973686564000000000000000000000000000000000000000000602082015250565b60006120c3602b8361190d565b91506120ce82612067565b604082019050919050565b600060208201905081810360008301526120f2816120b6565b9050919050565b7f4f776e61626c653a206e6577206f776e657220697320746865207a65726f206160008201527f6464726573730000000000000000000000000000000000000000000000000000602082015250565b600061215560268361190d565b9150612160826120f9565b604082019050919050565b6000602082019050818103600083015261218481612148565b9050919050565b7f566f7465727320726567697374726174696f6e206973206e6f74206f70656e2060008201527f7965740000000000000000000000000000000000000000000000000000000000602082015250565b60006121e760238361190d565b91506121f28261218b565b604082019050919050565b60006020820190508181036000830152612216816121da565b9050919050565b7f416c726561647920726567697374657265640000000000000000000000000000600082015250565b600061225360128361190d565b915061225e8261221d565b602082019050919050565b6000602082019050818103600083015261228281612246565b9050919050565b7f4f776e61626c653a2063616c6c6572206973206e6f7420746865206f776e6572600082015250565b60006122bf60208361190d565b91506122ca82612289565b602082019050919050565b600060208201905081810360008301526122ee816122b2565b905091905056fea264697066735822122091212d3931e2be476982ca44730437bf140a18f77d425a538982f8ce53e62acb64736f6c634300080e0033",
  "immutableReferences": {},
  "source": "// SPDX-License-Identifier: MIT\n\npragma solidity >=0.8.0 <0.9.0;\nimport \"@openzeppelin/contracts/access/Ownable.sol\";\n\n/// @author Owner : Alyra / Revision : 0xTitan.\n/// @notice contract updated to fix DoS when checking voting result\n/// @notice : ipfs link to devdoc : https://ipfs.io/ipfs/QmZh9j6Ee3ya4pk6HbfcnVKJXkkGB1t1nHJvgys1n6vhek\n/// @title Voting contract\ncontract Voting is Ownable {\n    struct Voter {\n        bool isRegistered;\n        bool hasVoted;\n        uint256 votedProposalId;\n    }\n\n    struct Proposal {\n        string description;\n        uint256 voteCount;\n    }\n\n    enum WorkflowStatus {\n        RegisteringVoters,\n        ProposalsRegistrationStarted,\n        ProposalsRegistrationEnded,\n        VotingSessionStarted,\n        VotingSessionEnded,\n        VotesTallied\n    }\n\n    uint256 public winningProposalId;\n    WorkflowStatus public workflowStatus;\n    Proposal[] proposalsArray;\n    mapping(address => Voter) voters;\n\n    event VoterRegistered(address voterAddress);\n    event WorkflowStatusChange(\n        WorkflowStatus previousStatus,\n        WorkflowStatus newStatus\n    );\n    event ProposalRegistered(uint256 proposalId);\n    event Voted(address voter, uint256 proposalId);\n\n    modifier onlyVoters() {\n        require(voters[msg.sender].isRegistered, \"You're not a voter\");\n        _;\n    }\n\n    // ::::::::::::: GETTERS ::::::::::::: //\n\n    /**@notice get voter data by address.\n     * @param _addr address.\n     * @dev return struct Voter\n     * @return voter information*/\n    function getVoter(address _addr)\n        external\n        view\n        onlyVoters\n        returns (Voter memory)\n    {\n        return voters[_addr];\n    }\n\n    /**@notice get proposal by id\n     * @param _id proposal id.\n     * @dev return struct proposal\n     * @return proposal information*/\n    function getOneProposal(uint256 _id)\n        external\n        view\n        onlyVoters\n        returns (Proposal memory)\n    {\n        return proposalsArray[_id];\n    }\n\n    // ::::::::::::: REGISTRATION ::::::::::::: //\n\n    /**@notice Register a voter by address.\n     * @param _addr address.\n     * @dev Create and store voter struct in an mapping state variable voters. Emit an event VoterRegistered*/\n    function addVoter(address _addr) external onlyOwner {\n        require(\n            workflowStatus == WorkflowStatus.RegisteringVoters,\n            \"Voters registration is not open yet\"\n        );\n        require(voters[_addr].isRegistered != true, \"Already registered\");\n\n        voters[_addr].isRegistered = true;\n        emit VoterRegistered(_addr);\n    }\n\n    // ::::::::::::: PROPOSAL ::::::::::::: //\n\n    /**@notice Register a proposal by description.\n     * @param _desc proposal description.\n     * @dev Create and store proposal struct in an array proposalsArray. Emit an event ProposalRegistered*/\n    function addProposal(string memory _desc) external onlyVoters {\n        require(\n            workflowStatus == WorkflowStatus.ProposalsRegistrationStarted,\n            \"Proposals are not allowed yet\"\n        );\n        require(\n            proposalsArray.length <= 100,\n            \"100 proposals has already been registred\"\n        ); //Fix DOS\n        require(\n            keccak256(abi.encode(_desc)) != keccak256(abi.encode(\"\")),\n            \"Vous ne pouvez pas ne rien proposer\"\n        ); // facultatif\n        // voir que desc est different des autres\n\n        Proposal memory proposal;\n        proposal.description = _desc;\n        proposalsArray.push(proposal);\n        emit ProposalRegistered(proposalsArray.length - 1);\n    }\n\n    // ::::::::::::: VOTE ::::::::::::: //\n    /**@notice Register a vote for a proposal.\n     * @param _id proposal id.\n     * @dev Increment vote count for the proposal id. Update has voted to true for the address call the function. Emit an event Voted*/\n    function setVote(uint256 _id) external onlyVoters {\n        require(\n            workflowStatus == WorkflowStatus.VotingSessionStarted,\n            \"Voting session havent started yet\"\n        );\n        require(voters[msg.sender].hasVoted != true, \"You have already voted\");\n        require(_id < proposalsArray.length, \"Proposal not found\"); // pas oblig, et pas besoin du >0 car uint\n\n        voters[msg.sender].votedProposalId = _id;\n        voters[msg.sender].hasVoted = true;\n        proposalsArray[_id].voteCount++;\n\n        emit Voted(msg.sender, _id);\n    }\n\n    // ::::::::::::: STATE ::::::::::::: //\n\n    /**@notice Start proposal registration phase.\n     * @dev Update workflowStatus state variable to ProposalsRegistrationStarted. Emit an event WorkflowStatusChange*/\n    function startProposalsRegistering() external onlyOwner {\n        require(\n            workflowStatus == WorkflowStatus.RegisteringVoters,\n            \"Registering proposals cant be started now\"\n        );\n        workflowStatus = WorkflowStatus.ProposalsRegistrationStarted;\n        emit WorkflowStatusChange(\n            WorkflowStatus.RegisteringVoters,\n            WorkflowStatus.ProposalsRegistrationStarted\n        );\n    }\n\n    /**@notice End proposal registration phase.\n     * @dev Update workflowStatus state variable to ProposalsRegistrationEnded. Emit an event WorkflowStatusChange*/\n    function endProposalsRegistering() external onlyOwner {\n        require(\n            workflowStatus == WorkflowStatus.ProposalsRegistrationStarted,\n            \"Registering proposals havent started yet\"\n        );\n        workflowStatus = WorkflowStatus.ProposalsRegistrationEnded;\n        emit WorkflowStatusChange(\n            WorkflowStatus.ProposalsRegistrationStarted,\n            WorkflowStatus.ProposalsRegistrationEnded\n        );\n    }\n\n    /**@notice Start voting session phase.\n     * @dev Update workflowStatus state variable to VotingSessionStarted. Emit an event WorkflowStatusChange*/\n    function startVotingSession() external onlyOwner {\n        require(\n            workflowStatus == WorkflowStatus.ProposalsRegistrationEnded,\n            \"Registering proposals phase is not finished\"\n        );\n        workflowStatus = WorkflowStatus.VotingSessionStarted;\n        emit WorkflowStatusChange(\n            WorkflowStatus.ProposalsRegistrationEnded,\n            WorkflowStatus.VotingSessionStarted\n        );\n    }\n\n    /**@notice End voting session phase.\n     * @dev Update workflowStatus state variable to VotingSessionEnded. Emit an event WorkflowStatusChange*/\n    function endVotingSession() external onlyOwner {\n        require(\n            workflowStatus == WorkflowStatus.VotingSessionStarted,\n            \"Voting session havent started yet\"\n        );\n        workflowStatus = WorkflowStatus.VotingSessionEnded;\n        emit WorkflowStatusChange(\n            WorkflowStatus.VotingSessionStarted,\n            WorkflowStatus.VotingSessionEnded\n        );\n    }\n\n    /**@notice Tally vote. Compute winning proposal\n     * @dev Update workflowStatus state variable to VotesTallied\n     * @dev Register winner proposal id in state variable winningProposalId. Emit an event WorkflowStatusChange*/\n    function tallyVotes() external onlyOwner {\n        require(\n            workflowStatus == WorkflowStatus.VotingSessionEnded,\n            \"Current status is not voting session ended\"\n        );\n        uint256 _winningProposalId;\n        for (uint256 p = 0; p < proposalsArray.length; p++) {\n            if (\n                proposalsArray[p].voteCount >\n                proposalsArray[_winningProposalId].voteCount\n            ) {\n                _winningProposalId = p;\n            }\n        }\n        winningProposalId = _winningProposalId;\n\n        workflowStatus = WorkflowStatus.VotesTallied;\n        emit WorkflowStatusChange(\n            WorkflowStatus.VotingSessionEnded,\n            WorkflowStatus.VotesTallied\n        );\n    }\n}\n",
  "sourcePath": "/home/clem/alyra/dapp/truffleBox/voting-react/truffle/contracts/Voting.sol",
  "compiler": {
    "name": "solc",
    "version": "0.8.14+commit.80d49f37.Emscripten.clang"
  },
  "schemaVersion": "3.4.8",
  "updatedAt": "2022-07-15T14:23:10.222Z",
  "networkType": "ethereum",
  "devdoc": {
    "author": "Owner : Alyra / Revision : 0xTitan.",
    "kind": "dev",
    "methods": {
      "addProposal(string)": {
        "details": "Create and store proposal struct in an array proposalsArray. Emit an event ProposalRegistered",
        "params": {
          "_desc": "proposal description."
        }
      },
      "addVoter(address)": {
        "details": "Create and store voter struct in an mapping state variable voters. Emit an event VoterRegistered",
        "params": {
          "_addr": "address."
        }
      },
      "endProposalsRegistering()": {
        "details": "Update workflowStatus state variable to ProposalsRegistrationEnded. Emit an event WorkflowStatusChange"
      },
      "endVotingSession()": {
        "details": "Update workflowStatus state variable to VotingSessionEnded. Emit an event WorkflowStatusChange"
      },
      "getOneProposal(uint256)": {
        "details": "return struct proposal",
        "params": {
          "_id": "proposal id."
        },
        "returns": {
          "_0": "proposal information"
        }
      },
      "getVoter(address)": {
        "details": "return struct Voter",
        "params": {
          "_addr": "address."
        },
        "returns": {
          "_0": "voter information"
        }
      },
      "owner()": {
        "details": "Returns the address of the current owner."
      },
      "renounceOwnership()": {
        "details": "Leaves the contract without owner. It will not be possible to call `onlyOwner` functions anymore. Can only be called by the current owner. NOTE: Renouncing ownership will leave the contract without an owner, thereby removing any functionality that is only available to the owner."
      },
      "setVote(uint256)": {
        "details": "Increment vote count for the proposal id. Update has voted to true for the address call the function. Emit an event Voted",
        "params": {
          "_id": "proposal id."
        }
      },
      "startProposalsRegistering()": {
        "details": "Update workflowStatus state variable to ProposalsRegistrationStarted. Emit an event WorkflowStatusChange"
      },
      "startVotingSession()": {
        "details": "Update workflowStatus state variable to VotingSessionStarted. Emit an event WorkflowStatusChange"
      },
      "tallyVotes()": {
        "details": "Update workflowStatus state variable to VotesTalliedRegister winner proposal id in state variable winningProposalId. Emit an event WorkflowStatusChange"
      },
      "transferOwnership(address)": {
        "details": "Transfers ownership of the contract to a new account (`newOwner`). Can only be called by the current owner."
      }
    },
    "title": "Voting contract",
    "version": 1
  },
  "userdoc": {
    "kind": "user",
    "methods": {
      "addProposal(string)": {
        "notice": "Register a proposal by description."
      },
      "addVoter(address)": {
        "notice": "Register a voter by address."
      },
      "endProposalsRegistering()": {
        "notice": "End proposal registration phase."
      },
      "endVotingSession()": {
        "notice": "End voting session phase."
      },
      "getOneProposal(uint256)": {
        "notice": "get proposal by id"
      },
      "getVoter(address)": {
        "notice": "get voter data by address."
      },
      "setVote(uint256)": {
        "notice": "Register a vote for a proposal."
      },
      "startProposalsRegistering()": {
        "notice": "Start proposal registration phase."
      },
      "startVotingSession()": {
        "notice": "Start voting session phase."
      },
      "tallyVotes()": {
        "notice": "Tally vote. Compute winning proposal"
      }
    },
    "notice": "contract updated to fix DoS when checking voting result: ipfs link to devdoc : https://ipfs.io/ipfs/QmZh9j6Ee3ya4pk6HbfcnVKJXkkGB1t1nHJvgys1n6vhek",
    "version": 1
  }
}